:100000000C9450000C946D000C946D000C946D00D9
:100010000C946D000C946D000C946D000C946D00AC
:100020000C946D000C946D000C946D000C946D009C
:100030000C94DC010C946D000C946D000C946D001C
:100040000C946D000C946D000C946D000C946D007C
:100050000C946D000C946D000C9459020C946D007E
:100060000C946D000C946D000C946D000C946D005C
:100070000C946D000C946D000C946D000C946D004C
:100080000C946D000C946D000C946D000C946D003C
:100090000C946D000C946D000C94A7030C946D00EF
:1000A00011241FBECFEFCDBFDFE3DEBF18E2A0E01B
:1000B000B8E2E6E4F8E002C005900D92A230B10784
:1000C000D9F729E2A2E0B8E201C01D92A03DB20733
:1000D000E1F70E94B4010C9412040C9400002FB7B5
:1000E000F89491E009C090911828892390911828DC
:1000F00098279093182890E09111F5CF2FBF08957D
:10010000E0E4F4E094819F7B9483E0E2F4E0948166
:100110009B7F9483E0EAF4E094819F7E9483E0E007
:10012000F4E094819D7F948384FF05C0E0E4F4E0D3
:1001300094819064948385FF05C0E0E2F4E09481AB
:100140009460948386FF05C0E0EAF4E094819061B6
:10015000948388232CF4E0E0F4E08481826084833B
:1001600008951F93CF93DF93182F807F0E94800004
:10017000E0E0F4E084818E7F8483C0EAD4E08C8167
:1001800080628C8386E08A95F1F700C08C818F7D38
:100190008C8387EE93E00197F1F700C00000812F78
:1001A0008295807F0E9480008C8180628C8396E0A3
:1001B0009A95F1F700C08C818F7D8C838FE097E258
:1001C0000197F1F700C00000DF91CF911F910895D2
:1001D0001F93CF93DF93182F807F0E948000E0E071
:1001E000F4E0848181608483C0EAD4E08C81806201
:1001F0008C8386E08A95F1F700C08C818F7D8C839B
:1002000087EE93E00197F1F700C00000812F8295FF
:10021000807F0E9480008C8180628C8396E09A951A
:10022000F1F700C08C818F7D8C838FE097E201977E
:10023000F1F700C00000DF91CF911F910895CF9397
:10024000DF93E0E0F4E0808181608083A0EAB4E0A5
:100250008C9180628C9380E494E0EC01288120648E
:10026000288340E254E0EA012881246028832C910D
:1002700020612C9320812260208324812E7F24837F
:1002800014962C9114972F7D14962C931497EC01AF
:100290002C812F7B2C83EA018C818B7F8C8314969D
:1002A0008C9114978F7E14968C9384818D7F848398
:1002B000DFEB24ED81E0D15020408040E1F700C029
:1002C000000083E30E94B100C7EAD1E62197F1F76D
:1002D00000C0000082E30E94B10088E20E94B100E9
:1002E0008CE00E94B10086E00E94B10081E00E9493
:1002F000B1008FE097E20197F1F700C00000DF91B5
:10030000CF9108950F931F93CF93DF938C01C0E09B
:10031000D0E003C00E94E8002196F801EC0FFD1F19
:1003200080818111F7CFDF91CF911F910F910895B7
:10033000CF93DF93EA01811108C0603130F4862F3A
:100340008F7080680E94B10009C0813039F460313B
:1003500028F4862F8F70806C0E94B100CE010E941D
:100360008201DF91CF91089560E081E690E00E94E4
:100370000C04E0EEF5E082818064828380E180936A
:100380002004109264040E941F0188E298E40E94F5
:10039000820181E00E94B10048E258E465E080E01B
:1003A0000E9498014EE258E465E081E00E949801C5
:1003B00084E00E946F00FCCF1F920F920FB60F9245
:1003C00011248F9381E08093860A809114288230D3
:1003D00099F028F4882349F0813051F01CC0843012
:1003E00099F070F08530A1F016C01092060613C087
:1003F00081E0809306060FC082E0809306060BC062
:1004000083E08093060607C084E08093060603C05D
:1004100085E08093060681E0809308068F910F9017
:100420000FBE0F901F901895CF93C62F20911728BD
:1004300030E02D5F3F4F26313105CCF5E091152896
:10044000F0E0E554F64D80838091152890E0019608
:1004500025E130E0B9010E94E40380931528E09182
:100460001528F0E0E554F64DC0838091152890E002
:100470000196B9010E94E40380931528E0911528A4
:10048000F0E0E554F64D40838091152890E0019608
:10049000B9010E94E40380931528809117288D5F8D
:1004A00080931728E0E6F8E0858180628583CF910C
:1004B00008951F920F920FB60F9211242F933F931E
:1004C0004F935F936F937F938F939F93AF93BF935C
:1004D000EF93FF932091100630911106E0911428BC
:1004E000F0E0EE5FF74D8081882321F0813009F440
:1004F000A3C01CC1E0911428F0E0EE0FFF1FE65CE2
:10050000F74B808191818217930788F4E09114283A
:10051000F0E0EE0FFF1FE755F64D20833183E091A9
:100520001428F0E0EE5FF74D81E080830AC08091EF
:10053000142890E0019666E070E00E94E403809346
:100540001428E0911428F0E0EE0FFF1FE85FF74D4C
:100550002081318180910028909101282817390746
:10056000B8F4E0911428F0E0EE0FFF1FE85FF74DBC
:1005700080819181892B61F0E0911428F0E0EE0FE9
:10058000FF1FE85FF74D8081918101968083918301
:10059000E0911428F0E0EE0FFF1FE85FF74D208197
:1005A000318180910028909101288217930708F0EB
:1005B000BDC0E09114288E2F90E0E0911428F0E067
:1005C000EE0FFF1FE755F64D20813181FC01EB5402
:1005D000F64D2083E0911428F0E0EB54F64D808135
:1005E00088233CF4E0911428F0E0EB54F64D8FE7BB
:1005F0008083E0911428F0E0EB54F64D4081E091C7
:100600001428F0E0EC5CF74B608180E90E94140252
:10061000E0911428F0E0EE0FFF1FE85FF74D108225
:1006200011828091142890E0019666E070E00E94AB
:10063000E403809314287AC0E0911428F0E0EE0FD0
:10064000FF1FE755F64D808191818217930748F48B
:10065000E0911428F0E0EE0FFF1FE755F64D2083E0
:100660003183E0911428F0E0EE0FFF1FE85FF74DB3
:100670002081318180910028909101282817390725
:1006800068F4E0911428F0E0EE0FFF1FE85FF74DEB
:100690008081918101968083918348C0E0911428E4
:1006A0008E2F90E0E0911428F0E0EE0FFF1FE75549
:1006B000F64D20813181FC01EB54F64D2083E09111
:1006C0001428F0E0EB54F64D808188233CF4E0914F
:1006D0001428F0E0EB54F64D8FE78083E091142866
:1006E000F0E0EB54F64D4081E0911428F0E0EC5C32
:1006F000F74B608180E90E941402E0911428F0E039
:10070000EE0FFF1FE85FF74D10821182E091142871
:10071000F0E0EE5FF74D10828091142890E0019692
:1007200066E070E00E94E40380931428FF91EF914B
:10073000BF91AF919F918F917F916F915F914F91F9
:100740003F912F910F900FBE0F901F9018951F9201
:100750000F920FB60F9211245F936F937F938F9335
:100760009F93AF93BF93EF93FF93809117288111CD
:1007700006C0E0E6F8E085818F7D858317C0E091B3
:100780001628F0E0E554F64D808180936208809150
:10079000162890E0019665E170E00E94E4038093E2
:1007A000162880911728815080931728FF91EF9188
:1007B000BF91AF919F918F917F916F915F910F90BA
:1007C0000FBE0F901F90189597FB072E16F40094FC
:1007D00007D077FD09D00E94F80307FC05D03EF44E
:1007E000909581959F4F0895709561957F4F0895DD
:1007F000AA1BBB1B51E107C0AA1FBB1FA617B70747
:1008000010F0A61BB70B881F991F5A95A9F7809562
:100810009095BC01CD010895DC0128ED20933400B2
:080820006C930895F894FFCFDA
:1008280068656C6C6F00776F726C6400192406073A
:0E0838000F0D0A000A00140020001400140026
:02084600780038
:00000001FF
