:100000000C9450000C946D000C946D000C946D00D9
:100010000C946D000C946D000C946D000C946D00AC
:100020000C946D000C946D000C946D000C946D009C
:100030000C94D2020C946D000C946D000C946D0025
:100040000C946D000C946D000C946D000C946D007C
:100050000C946D000C946D000C9461030C946D0075
:100060000C946D000C946D000C946D000C946D005C
:100070000C946D000C946D000C946D000C946D004C
:100080000C946D000C946D000C946D000C946D003C
:100090000C946D000C946D000C94AF040C946D00E6
:1000A00011241FBECFEFCDBFDFE3DEBF18E2A0E01B
:1000B000B8E2E4E3F0E102C005900D92A430B1078C
:1000C000D9F729E2A4E0B8E201C01D92A33DB2072E
:1000D000E1F70E94CF010C94FE070C940000909170
:1000E0008804623429F0653429F49091880402C0B0
:1000F00090912804892311F080E0089581E008950B
:10010000E0E8F4E080858460808780858260808775
:10011000808581608087A0E2B4E018968C91189762
:10012000826018968C93189788E0828B818B808BE5
:1001300051968C930895E0E4F4E094819F7B94833E
:10014000E0E2F4E094819B7F9483E0EAF4E0948120
:100150009F7E9483E0E0F4E094819D7F948384FF0C
:1001600005C0E0E4F4E094819064948385FF05C0C9
:10017000E0E2F4E094819460948386FF05C0E0EAB5
:10018000F4E094819061948388232CF4E0E0F4E01F
:1001900084818260848308951F93CF93DF93182F07
:1001A000807F0E949B00E0E0F4E084818E7F848366
:1001B000C0EAD4E08C8180628C8386E08A95F1F776
:1001C00000C08C818F7D8C8387EE93E00197F1F7DF
:1001D00000C00000812F8295807F0E949B008C814F
:1001E00080628C8396E09A95F1F700C08C818F7DB8
:1001F0008C838FE097E20197F1F700C00000DF9158
:10020000CF911F9108951F93CF93DF93182F807F75
:100210000E949B00E0E0F4E0848181608483C0EA76
:10022000D4E08C8180628C8386E08A95F1F700C0EF
:100230008C818F7D8C8387EE93E00197F1F700C06E
:100240000000812F8295807F0E949B008C818062BC
:100250008C8396E09A95F1F700C08C818F7D8C831A
:100260008FE097E20197F1F700C00000DF91CF9196
:100270001F910895CF93DF93E0E0F4E080818160E7
:100280008083A0EAB4E08C9180628C9380E494E057
:10029000EC0128812064288340E254E0EA012881AF
:1002A000246028832C9120612C932081226020835C
:1002B00024812E7F248314962C9114972F7D1496DD
:1002C0002C931497EC012C812F7B2C83EA018C81D9
:1002D0008B7F8C8314968C9114978F7E14968C93BD
:1002E00084818D7F8483DFEB24ED81E0D150204039
:1002F0008040E1F700C0000083E30E94CC00C7EA21
:10030000D1E62197F1F700C0000082E30E94CC0003
:1003100088E20E94CC008CE00E94CC0086E00E9423
:10032000CC0081E00E94CC008FE097E20197F1F7CA
:1003300000C00000DF91CF9108950F931F93CF93DA
:10034000DF938C01C0E0D0E003C00E94030121963E
:10035000F801EC0FFD1F80818111F7CFDF91CF9164
:100360001F910F910895CF93DF93EA01811108C087
:10037000603130F4862F8F7080680E94CC0009C0F5
:10038000813039F4603128F4862F8F70806C0E94A0
:10039000CC00CE010E949D01DF91CF910895CF93B3
:1003A000DF93CDB7DEB7D450CDBFDEBF60E081E6CE
:1003B00090E00E94C707E0EEF5E0828180648283CE
:1003C00080E180932004109264040E943A0180E04E
:1003D00090E50E949D0181E00E94CC0040E050E544
:1003E00065E080E00E94B30146E050E565E081E011
:1003F0000E94B30181E00E94CC000E94800000E0D6
:1004000010E065E484E00E946F00882309F480C056
:10041000809100288130C1F030F0823051F183307A
:1004200009F463C075C065E484E00E946F0088230E
:1004300009F46EC081E08093002888EE93E08093F9
:100440000A2890930B2864C080910A2890910B2869
:10045000181619060CF45CC065E484E00E946F0075
:10046000882321F082E08093002852C01092002857
:100470004FC081E00E94CC004CE050E565E080E098
:100480000E94B3011F930F9381E190E59F938F9397
:10049000CE0101967C019F938F930E941405A701C2
:1004A00065E081E00E94B3019FE72AE186E0915078
:1004B00020408040E1F700C000000F5F1F4F65E45F
:1004C00084E00E946F000F900F900F900F900F909C
:1004D0000F9081111DC088EE93E080930A289093BD
:1004E0000B2883E08093002813C080910A28909104
:1004F0000B281816190664F065E484E00E946F006A
:10050000882321F082E08093002802C01092002806
:1005100065E482E00E946F00882391F081E00E94F0
:10052000CC0044E150E565E080E00E94B3019FE724
:100530002AE186E0915020408040E1F700C00000B1
:1005400065E481E00E946F00882391F081E00E94C1
:10055000CC004AE150E565E080E00E94B3019FE7EE
:100560002AE186E0915020408040E1F700C0000081
:1005700062E482E00E946F00882309F442CF81E0A8
:100580000E94CC004FE150E565E080E00E94B3019D
:100590009FE72AE186E0915020408040E1F700C0CB
:1005A00000002FCF1F920F920FB60F9211248F933E
:1005B0009F9381E08093860A80910A2890910B286E
:1005C000181619064CF480910A2890910B2801976F
:1005D00080930A2890930B2880911828823099F0F4
:1005E00028F4882349F0813051F01CC0843099F000
:1005F00070F08530A1F016C01092060613C081E09D
:10060000809306060FC082E0809306060BC083E04D
:100610008093060607C084E08093060603C085E049
:100620008093060681E0809308069F918F910F903A
:100630000FBE0F901F901895CF93C62F20911B28A7
:1006400030E02D5F3F4F26313105CCF5E091192880
:10065000F0E0E254F64D80838091192890E00196F5
:1006600025E130E0B9010E94EC0480931928E09163
:100670001928F0E0E254F64DC0838091192890E0EB
:100680000196B9010E94EC0480931928E091192881
:10069000F0E0E254F64D40838091192890E00196F5
:1006A000B9010E94EC048093192880911B288D5F6A
:1006B00080931B28E0E6F8E0858180628583CF91F6
:1006C00008951F920F920FB60F9211242F933F930C
:1006D0004F935F936F937F938F939F93AF93BF934A
:1006E000EF93FF932091100630911106E0911828A6
:1006F000F0E0EC5FF74D8081882321F0813009F430
:10070000A3C01CC1E0911828F0E0EE0FFF1FE85DC8
:10071000FF4A808191818217930788F4E09118281D
:10072000F0E0EE0FFF1FE455F64D20833183E0919A
:100730001828F0E0EC5FF74D81E080830AC08091DB
:10074000182890E0019666E070E00E94EC04809327
:100750001828E0911828F0E0EE0FFF1FE45FF74D36
:100760002081318180910128909102282817390732
:10077000B8F4E0911828F0E0EE0FFF1FE45FF74DAA
:1007800080819181892B61F0E0911828F0E0EE0FD3
:10079000FF1FE45FF74D80819181019680839183F3
:1007A000E0911828F0E0EE0FFF1FE45FF74D208185
:1007B000318180910128909102288217930708F0D7
:1007C000BDC0E09118288E2F90E0E0911828F0E04D
:1007D000EE0FFF1FE455F64D20813181FC01E854F6
:1007E000F64D2083E0911828F0E0E854F64D808122
:1007F00088233CF4E0911828F0E0E854F64D8FE7A8
:100800008083E0911828F0E0E854F64D4081E091B3
:100810001828F0E0EE5DFF4A608180E90E941C0329
:10082000E0911828F0E0EE0FFF1FE45FF74D108213
:1008300011828091182890E0019666E070E00E9495
:10084000EC04809318287AC0E0911828F0E0EE0FAD
:10085000FF1FE455F64D808191818217930748F47C
:10086000E0911828F0E0EE0FFF1FE455F64D2083CD
:100870003183E0911828F0E0EE0FFF1FE45FF74DA1
:100880002081318180910128909102282817390711
:1008900068F4E0911828F0E0EE0FFF1FE45FF74DD9
:1008A0008081918101968083918348C0E0911828CE
:1008B0008E2F90E0E0911828F0E0EE0FFF1FE45536
:1008C000F64D20813181FC01E854F64D2083E09102
:1008D0001828F0E0E854F64D808188233CF4E0913C
:1008E0001828F0E0E854F64D8FE78083E09118284F
:1008F000F0E0E854F64D4081E0911828F0E0EE5D1C
:10090000FF4A608180E90E941C03E0911828F0E012
:10091000EE0FFF1FE45FF74D10821182E09118285F
:10092000F0E0EC5FF74D10828091182890E001967E
:1009300066E070E00E94EC0480931828FF91EF912C
:10094000BF91AF919F918F917F916F915F914F91E7
:100950003F912F910F900FBE0F901F9018951F92EF
:100960000F920FB60F9211245F936F937F938F9323
:100970009F93AF93BF93EF93FF9380911B288111B7
:1009800006C0E0E6F8E085818F7D858317C0E091A1
:100990001A28F0E0E254F64D80818093620880913D
:1009A0001A2890E0019665E170E00E94EC048093C3
:1009B0001A2880911B28815080931B28FF91EF916A
:1009C000BF91AF919F918F917F916F915F910F90A8
:1009D0000FBE0F901F90189597FB072E16F40094EA
:1009E00007D077FD09D00E94000507FC05D03EF432
:1009F000909581959F4F0895709561957F4F0895CB
:100A0000AA1BBB1B51E107C0AA1FBB1FA617B70734
:100A100010F0A61BB70B881F991F5A95A9F7809550
:100A20009095BC01CD010895AEE0B0E0EAE1F5E0BB
:100A30000C94DB070D891E8986E08C8309831A8359
:100A40008FEF9FE78D839E83AE01475E5F4F6F8977
:100A5000788DCE0101960E943605EF81F885E00F72
:100A6000F11F10822E96E4E00C94F407ABE0B0E0A6
:100A7000ECE3F5E00C94CD076C017B018A01FC01ED
:100A800016821782838181FFCCC1CE0101963C0181
:100A9000F6019381F70193FD859193FF81917F0189
:100AA000882309F4BAC1853239F493FD859193FF07
:100AB00081917F01853229F4B60190E00E942D07D3
:100AC000E7CF912C212C312CFFE1F315D8F08B329C
:100AD00079F038F4803279F08332A1F4232D20614B
:100AE0001DC08D3261F0803369F4232D216016C062
:100AF000832D8260382EE32DE4603E2E2AC0F32D34
:100B0000F8601DC037FC2DC020ED280F2A3040F0C2
:100B10008E32B9F436FC81C1232D2064322E19C0E7
:100B200036FE06C08AE0989E200D1124922E11C038
:100B3000EAE02E9E200D1124222EF32DF0623F2E8E
:100B400008C08C3621F4832D8068382E02C0883688
:100B500041F4F70193FD859193FF81917F0181110C
:100B6000B3CF982F9F7D9554933028F40C5F1F4F7F
:100B70009FE399830DC0833631F0833771F083355D
:100B800009F059C021C0F801808189830E5F1F4F91
:100B900088248394912C530113C02801F2E04F0E56
:100BA000511CF801A080B18036FE03C0692D70E0B1
:100BB00002C06FEF7FEFC5010E9422074C01820146
:100BC000F32DFF773F2E16C0280122E0420E511C64
:100BD000F801A080B18036FE03C0692D70E002C02C
:100BE0006FEF7FEFC5010E9417074C01F32DF068EE
:100BF0003F2E820133FC1BC0822D90E0881699069F
:100C0000B0F4B60180E290E00E942D072A94F4CF60
:100C1000F50137FC859137FE81915F01B60190E0C7
:100C20000E942D0721102A9421E0821A9108811434
:100C3000910471F7E8C0843611F0893641F5F80166
:100C400037FE07C060817181828193810C5F1F4FE5
:100C500008C060817181072E000C880B990B0E5F14
:100C60001F4FF32DFF763F2E97FF09C0909580957B
:100C7000709561957F4F8F4F9F4FF0683F2E2AE010
:100C800030E0A3010E946907882E861845C0853789
:100C900031F4232D2F7EB22E2AE030E025C0932D93
:100CA000997FB92E8F36C1F018F4883579F0B5C028
:100CB000803719F0883721F0B0C0E92FE061BE2EEF
:100CC000B4FE0DC0FB2DF460BF2E09C034FE0AC077
:100CD000292F2660B22E06C028E030E005C020E1B2
:100CE00030E002C020E132E0F801B7FE07C06081C9
:100CF0007181828193810C5F1F4F06C06081718179
:100D000080E090E00E5F1F4FA3010E946907882ECC
:100D10008618FB2DFF773F2E36FE0DC0232D2E7F2C
:100D2000A22E891458F434FE0BC032FC09C0832D66
:100D30008E7EA82E05C0B82CA32C03C0B82C01C0F1
:100D4000B92CA4FE0FC0FE01E80DF11D8081803397
:100D500021F49A2D997EA92E09C0A2FE06C0B39453
:100D6000B39404C08A2D867809F0B394A3FC11C013
:100D7000A0FE06C0B21488F4280C922C9B180EC05A
:100D8000B21460F4B60180E290E00E942D07B394A3
:100D9000F7CFB21418F42B1802C0982C212CA4FE03
:100DA00010C0B60180E390E00E942D07A2FE17C09C
:100DB000A1FC03C088E790E002C088E590E0B6019E
:100DC0000CC08A2D867859F0A1FE02C08BE201C0CA
:100DD00080E2A7FC8DE2B60190E00E942D07891405
:100DE00038F4B60180E390E00E942D079A94F7CF83
:100DF0008A94F301E80DF11D8081B60190E00E9414
:100E00002D078110F5CF222009F442CEB60180E2F1
:100E100090E00E942D072A94F6CFF60186819781F3
:100E200002C08FEF9FEF2B96E2E10C94E607FC01E6
:100E30000590615070400110D8F7809590958E0F05
:100E40009F1F0895FC016150704001900110D8F778
:100E5000809590958E0F9F1F08950F931F93CF93AA
:100E6000DF93FB01238121FD03C08FEF9FEF2CC097
:100E700022FF16C0468157812481358142175307CE
:100E800044F4A081B1819D012F5F3F4F20833183C6
:100E90008C93268137812F5F3F4F2683378314C081
:100EA0008B01EC01FB010084F185E02D0995892B74
:100EB000E1F6D80116968D919C911797019616969A
:100EC0008D939C931797CE01DF91CF911F910F9136
:100ED0000895FA01AA27283051F1203181F1E894D0
:100EE0006F936E7F6E5F7F4F8F4F9F4FAF4FB1E01D
:100EF0003ED0B4E03CD0670F781F891F9A1FA11D18
:100F0000680F791F8A1F911DA11D6A0F711D811D18
:100F1000911DA11D20D009F468943F912AE0269FDD
:100F200011243019305D3193DEF6CF010895462F3C
:100F30004770405D4193B3E00FD0C9F7F6CF462F1D
:100F40004F70405D4A3318F0495D31FD4052419386
:100F500002D0A9F7EACFB4E0A69597958795779543
:100F60006795BA95C9F700976105710508959B01CA
:100F7000AC010A2E06945795479537952795BA9553
:100F8000C9F7620F731F841F951FA01D0895DC0110
:100F900028ED209334006C9308952F923F924F9246
:100FA0005F926F927F928F929F92AF92BF92CF92F9
:100FB000DF92EF92FF920F931F93CF93DF93CDB702
:100FC000DEB7CA1BDB0BCDBFDEBF09942A88398888
:100FD00048885F846E847D848C849B84AA84B984D1
:100FE000C884DF80EE80FD800C811B81AA81B981DD
:100FF000CE0FD11DCDBFDEBFED010895F894FFCF18
:1010000068656C6C6F00776F726C64004C45465479
:1010100000256400524947485400444F574E00553C
:101020005000192406070F0D0A000A0014002000C2
:041030001400140094
:04103400027800003E
:00000001FF
