:100000000C9450000C946D000C946D000C946D00D9
:100010000C946D000C946D000C946D000C946D00AC
:100020000C946D000C946D000C946D000C946D009C
:100030000C9494030C946D000C946D000C946D0062
:100040000C946D000C946D000C946D000C946D007C
:100050000C946D000C946D000C944F040C946D0086
:100060000C946D000C946D000C946D000C946D005C
:100070000C946D000C946D000C946D000C946D004C
:100080000C946D000C946D000C946D000C946D003C
:100090000C946D000C946D000C949D050C946D00F7
:1000A00011241FBECFEFCDBFDFE3DEBF18E2A0E01B
:1000B000B8E2E0E3F2E102C005900D92A230B10790
:1000C000D9F729E2A2E0B8E201C01D92AF3DB20724
:1000D000E1F70E94A4020C94EC080C9400009091AB
:1000E0008804623429F0653429F49091880402C0B0
:1000F00090912804892311F080E0089581E008950B
:10010000E0E8F4E080858460808780858260808775
:10011000808581608087A0E2B4E018968C91189762
:10012000826018968C93189788E0828B818B808BE5
:1001300051968C930895E0E4F4E094819F7B94833E
:10014000E0E2F4E094819B7F9483E0EAF4E0948120
:100150009F7E9483E0E0F4E094819D7F948384FF0C
:1001600005C0E0E4F4E094819064948385FF05C0C9
:10017000E0E2F4E094819460948386FF05C0E0EAB5
:10018000F4E094819061948388232CF4E0E0F4E01F
:1001900084818260848308951F93CF93DF93182F07
:1001A000807F0E949B00E0E0F4E084818E7F848366
:1001B000C0EAD4E08C8180628C8386E08A95F1F776
:1001C00000C08C818F7D8C8387EE93E00197F1F7DF
:1001D00000C00000812F8295807F0E949B008C814F
:1001E00080628C8396E09A95F1F700C08C818F7DB8
:1001F0008C838FE097E20197F1F700C00000DF9158
:10020000CF911F9108951F93CF93DF93182F807F75
:100210000E949B00E0E0F4E0848181608483C0EA76
:10022000D4E08C8180628C8386E08A95F1F700C0EF
:100230008C818F7D8C8387EE93E00197F1F700C06E
:100240000000812F8295807F0E949B008C818062BC
:100250008C8396E09A95F1F700C08C818F7D8C831A
:100260008FE097E20197F1F700C00000DF91CF9196
:100270001F910895CF93DF93E0E0F4E080818160E7
:100280008083A0EAB4E08C9180628C9380E494E057
:10029000EC0128812064288340E254E0EA012881AF
:1002A000246028832C9120612C932081226020835C
:1002B00024812E7F248314962C9114972F7D1496DD
:1002C0002C931497EC012C812F7B2C83EA018C81D9
:1002D0008B7F8C8314968C9114978F7E14968C93BD
:1002E00084818D7F8483DFEB24ED81E0D150204039
:1002F0008040E1F700C0000083E30E94CC00C7EA21
:10030000D1E62197F1F700C0000082E30E94CC0003
:1003100088E20E94CC008CE00E94CC0086E00E9423
:10032000CC0081E00E94CC008FE097E20197F1F7CA
:1003300000C00000DF91CF9108950F931F93CF93DA
:10034000DF938C01C0E0D0E003C00E94030121963E
:10035000F801EC0FFD1F80818111F7CFDF91CF9164
:100360001F910F910895CF93DF93EA01811108C087
:10037000603130F4862F8F7080680E94CC0009C0F5
:10038000813039F4603128F4862F8F70806C0E94A0
:10039000CC00CE010E949D01DF91CF9108950F9373
:1003A0001F93CF93DF93CDB7DEB7D450CDBFDEBF61
:1003B000882319F08130D1F044C081E00E94CC0044
:1003C0004CED51E562E080E00E94B30148EE51E55A
:1003D00063E081E00E94B3012FE78AE196E02150BB
:1003E00080409040E1F700C000002BC081E00E94F7
:1003F000CC0043EF51E564E080E00E94B3011F921E
:1004000089E18F938CEF91E59F938F938E010F5F1E
:100410001F4F1F930F930E940206A80168E081E01E
:100420000E94B3012FE78AE196E02150804090407E
:10043000E1F700C000000F900F900F900F900F9009
:100440000F90DC5FCDBFDEBFDF91CF911F910F9189
:10045000089590E0FC01EC5EF74D21E02083880FC9
:10046000991FFC01E85FF74D88EC90E08083918351
:100470000895CF9320910828309109281216130669
:10048000B4F0C42F0E946F00882361F0EC2FF0E0DD
:10049000DF01AC5EB74D82E08C93E05FF74D81E009
:1004A000808305C0EC2FF0E0EC5EF74D1082CF9119
:1004B00008950F931F93CF93DF93182F062FC42F08
:1004C000D0E0FE01E05FF74D8081813021F44230C1
:1004D00010F40E94CF01FE01E05FF74D1082602F03
:1004E000812F0E946F0081110DC0FE01EE0FFF1FD2
:1004F000E85FF74D88EC90E080839183CC5ED74D28
:1005000083E08883DF91CF911F910F910895CF935E
:10051000DF93C42FD0E0FE01EE0FFF1FE85FF74D21
:10052000208131811216130664F00E946F00882327
:1005300029F0CC5ED74D82E0888303C0CC5ED74DD6
:100540001882DF91CF91089560E081E690E00E94EB
:10055000B508E0EEF5E082818064828380E18093DB
:10056000200400E614E0F8011482E0E6F8E089E3F4
:1005700091E08087918780E48683E0E8FAE0C1E03B
:10058000C583128613868AE491E084879587C083A9
:100590000E943A018FEF91E50E949D0181E00E9447
:1005A000CC004FEF51E565E080E00E94B30145E0EB
:1005B00052E565E081E00E94B30181E00E94CC0039
:1005C0000E94800084E0F801808B818BE0E0F6E0FF
:1005D00083E582831682C287C08378948091142831
:1005E000813081F028F0823099F08330C9F01DC04D
:1005F00065E484E00E946F008823C9F080E00E94D7
:10060000290215C040E065E484E00E9439020FC071
:100610002BE032E540E065E484E00E94590207C027
:1006200040E065E484E00E948702109214288091E3
:100630001528813081F028F0823099F08330C9F09C
:100640001DC065E482E00E946F008823C9F081E04C
:100650000E94290215C041E065E482E00E9439024F
:100660000FC020E132E541E065E482E00E945902DA
:1006700007C041E065E482E00E94870210921528DD
:1006800080911628813081F028F0823099F08330F3
:10069000C9F01DC065E481E00E946F008823C9F0A5
:1006A00082E00E94290215C042E065E481E00E94D8
:1006B00039020FC026E132E542E065E481E00E94A4
:1006C000590207C042E065E482E00E94870210926E
:1006D000162880911728813089F028F08230A1F007
:1006E0008330D1F01EC062E482E00E946F00882354
:1006F00009F474CF83E00E94290270CF43E062E4E2
:1007000082E00E9439026ACF2BE132E543E062E4E5
:1007100082E00E94590262CF43E062E482E00E94DC
:100720008702109217285ACF1F920F920FB60F927E
:1007300011248F939F93EF93FF9381E08093860A18
:100740008091082890910928181619063CF4E8E0D1
:10075000F8E28081918101978083918380910A28BA
:1007600090910B28181619063CF4E8E0F8E2828113
:10077000938101978283938380910C2890910D2817
:10078000181619063CF4E8E0F8E284819581019797
:100790008483958380910E2890910F28181619064E
:1007A0003CF4E8E0F8E2868197810197868397839D
:1007B00080912428823099F028F4882349F08130F0
:1007C00051F01CC0843099F070F08530A1F016C053
:1007D0001092060613C081E0809306060FC082E0E7
:1007E000809306060BC083E08093060607C084E072
:1007F0008093060603C085E08093060681E080931F
:100800000806FF91EF919F918F910F900FBE0F906F
:100810001F901895CF93C62F2091272830E02D5F89
:100820003F4F26313105CCF5E0912528F0E0E65325
:10083000F64D80838091252890E0019625E130E0F7
:10084000B9010E94DA0580932528E0912528F0E07F
:10085000E653F64DC0838091252890E00196B901BA
:100860000E94DA0580932528E0912528F0E0E653E0
:10087000F64D40838091252890E00196B9010E94B1
:10088000DA0580932528809127288D5F809327287B
:10089000E0E6F8E0858180628583CF9108951F921C
:1008A0000F920FB60F9211242F933F934F935F93A4
:1008B0006F937F938F939F93AF93BF93EF93FF9328
:1008C0002091100630911106E0912428F0E0EE5FAF
:1008D000F74D8081882321F0813009F4A3C01CC129
:1008E000E0912428F0E0EE0FFF1FEC5DFD4A8081CF
:1008F00091818217930788F4E0912428F0E0EE0FAD
:10090000FF1FE854F64D20833183E0912428F0E066
:10091000EE5FF74D81E080830AC08091242890E04B
:10092000019666E070E00E94DA0580932428E09149
:100930002428F0E0EE0FFF1FE85EF74D20813181A3
:10094000809100289091012828173907B8F4E09188
:100950002428F0E0EE0FFF1FE85EF74D80819181C3
:10096000892B61F0E0912428F0E0EE0FFF1FE85E94
:10097000F74D80819181019680839183E0912428B5
:10098000F0E0EE0FFF1FE85EF74D2081318180918E
:100990000028909101288217930708F0BDC0E091CC
:1009A00024288E2F90E0E0912428F0E0EE0FFF1F26
:1009B000E854F64D20813181FC01EC53F64D208343
:1009C000E0912428F0E0EC53F64D808188233CF43C
:1009D000E0912428F0E0EC53F64D8FE78083E0911E
:1009E0002428F0E0EC53F64D4081E0912428F0E01B
:1009F000E25EFD4A608180E90E940A04E0912428B9
:100A0000F0E0EE0FFF1FE85EF74D1082118280913B
:100A1000242890E0019666E070E00E94DA05809359
:100A200024287AC0E0912428F0E0EE0FFF1FE8545C
:100A3000F64D808191818217930748F4E091242834
:100A4000F0E0EE0FFF1FE854F64D20833183E09174
:100A50002428F0E0EE0FFF1FE85EF74D2081318182
:100A600080910028909101282817390768F4E091B7
:100A70002428F0E0EE0FFF1FE85EF74D80819181A2
:100A800001968083918348C0E09124288E2F90E0C6
:100A9000E0912428F0E0EE0FFF1FE854F64D20818E
:100AA0003181FC01EC53F64D2083E0912428F0E0E5
:100AB000EC53F64D808188233CF4E0912428F0E04B
:100AC000EC53F64D8FE78083E0912428F0E0EC535F
:100AD000F64D4081E0912428F0E0E25EFD4A60811D
:100AE00080E90E940A04E0912428F0E0EE0FFF1F45
:100AF000E85EF74D10821182E0912428F0E0EE5F6D
:100B0000F74D10828091242890E0019666E070E015
:100B10000E94DA0580932428FF91EF91BF91AF9155
:100B20009F918F917F916F915F914F913F912F9105
:100B30000F900FBE0F901F9018951F920F920FB637
:100B40000F9211245F936F937F938F939F93AF9333
:100B5000BF93EF93FF9380912728811106C0E0E6B1
:100B6000F8E085818F7D858317C0E0912628F0E02D
:100B7000E653F64D8081809362088091262890E0AC
:100B8000019665E170E00E94DA0580932628809145
:100B90002728815080932728FF91EF91BF91AF9133
:100BA0009F918F917F916F915F910F900FBE0F90EA
:100BB0001F90189597FB072E16F4009407D077FD29
:100BC00009D00E94EE0507FC05D03EF49095819572
:100BD0009F4F0895709561957F4F0895AA1BBB1B89
:100BE00051E107C0AA1FBB1FA617B70710F0A61B2D
:100BF000B70B881F991F5A95A9F780959095BC014E
:100C0000CD010895AEE0B0E0E8E0F6E00C94C9084C
:100C10000D891E8986E08C8309831A838FEF9FE7F5
:100C20008D839E83AE01475E5F4F6F89788DCE01C5
:100C300001960E942406EF81F885E00FF11F1082D3
:100C40002E96E4E00C94E208ABE0B0E0EAE2F6E0D5
:100C50000C94BB086C017B018A01FC01168217828F
:100C6000838181FFCCC1CE0101963C01F6019381C5
:100C7000F70193FD859193FF81917F01882309F40A
:100C8000BAC1853239F493FD859193FF81917F013B
:100C9000853229F4B60190E00E941B08E7CF912C21
:100CA000212C312CFFE1F315D8F08B3279F038F498
:100CB000803279F08332A1F4232D20611DC08D3262
:100CC00061F0803369F4232D216016C0832D82608A
:100CD000382EE32DE4603E2E2AC0F32DF8601DC0AF
:100CE00037FC2DC020ED280F2A3040F08E32B9F4A9
:100CF00036FC81C1232D2064322E19C036FE06C079
:100D00008AE0989E200D1124922E11C0EAE02E9EBA
:100D1000200D1124222EF32DF0623F2E08C08C36B8
:100D200021F4832D8068382E02C0883641F4F70103
:100D300093FD859193FF81917F018111B3CF982F0E
:100D40009F7D9554933028F40C5F1F4F9FE3998348
:100D50000DC0833631F0833771F0833509F059C007
:100D600021C0F801808189830E5F1F4F88248394FE
:100D7000912C530113C02801F2E04F0E511CF801D1
:100D8000A080B18036FE03C0692D70E002C06FEF15
:100D90007FEFC5010E9410084C018201F32DFF77FF
:100DA0003F2E16C0280122E0420E511CF801A080FF
:100DB000B18036FE03C0692D70E002C06FEF7FEF97
:100DC000C5010E9405084C01F32DF0683F2E8201F9
:100DD00033FC1BC0822D90E088169906B0F4B60152
:100DE00080E290E00E941B082A94F4CFF50137FCC2
:100DF000859137FE81915F01B60190E00E941B084A
:100E000021102A9421E0821A91088114910471F72B
:100E1000E8C0843611F0893641F5F80137FE07C085
:100E200060817181828193810C5F1F4F08C0608156
:100E30007181072E000C880B990B0E5F1F4FF32D4D
:100E4000FF763F2E97FF09C090958095709561952C
:100E50007F4F8F4F9F4FF0683F2E2AE030E0A30175
:100E60000E945708882E861845C0853731F4232DF7
:100E70002F7EB22E2AE030E025C0932D997FB92E27
:100E80008F36C1F018F4883579F0B5C0803719F085
:100E9000883721F0B0C0E92FE061BE2EB4FE0DC04E
:100EA000FB2DF460BF2E09C034FE0AC0292F266036
:100EB000B22E06C028E030E005C020E130E002C0DC
:100EC00020E132E0F801B7FE07C0608171818281C4
:100ED00093810C5F1F4F06C06081718180E090E0BC
:100EE0000E5F1F4FA3010E945708882E8618FB2D06
:100EF000FF773F2E36FE0DC0232D2E7FA22E8914A4
:100F000058F434FE0BC032FC09C0832D8E7EA82E0F
:100F100005C0B82CA32C03C0B82C01C0B92CA4FE6A
:100F20000FC0FE01E80DF11D8081803321F49A2D60
:100F3000997EA92E09C0A2FE06C0B394B39404C042
:100F40008A2D867809F0B394A3FC11C0A0FE06C0D8
:100F5000B21488F4280C922C9B180EC0B21460F4C2
:100F6000B60180E290E00E941B08B394F7CFB21460
:100F700018F42B1802C0982C212CA4FE10C0B60126
:100F800080E390E00E941B08A2FE17C0A1FC03C0F2
:100F900088E790E002C088E590E0B6010CC08A2D99
:100FA000867859F0A1FE02C08BE201C080E2A7FC66
:100FB0008DE2B60190E00E941B08891438F4B60156
:100FC00080E390E00E941B089A94F7CF8A94F30183
:100FD000E80DF11D8081B60190E00E941B08811090
:100FE000F5CF222009F442CEB60180E290E00E94C3
:100FF0001B082A94F6CFF6018681978102C08FEFF5
:101000009FEF2B96E2E10C94D408FC01059061500F
:1010100070400110D8F7809590958E0F9F1F08950E
:10102000FC016150704001900110D8F780959095B7
:101030008E0F9F1F08950F931F93CF93DF93FB0194
:10104000238121FD03C08FEF9FEF2CC022FF16C02C
:1010500046815781248135814217530744F4A0818A
:10106000B1819D012F5F3F4F208331838C93268177
:1010700037812F5F3F4F2683378314C08B01EC01EC
:10108000FB010084F185E02D0995892BE1F6D8015B
:1010900016968D919C911797019616968D939C9319
:1010A0001797CE01DF91CF911F910F910895FA010B
:1010B000AA27283051F1203181F1E8946F936E7F97
:1010C0006E5F7F4F8F4F9F4FAF4FB1E03ED0B4E088
:1010D0003CD0670F781F891F9A1FA11D680F791FC9
:1010E0008A1F911DA11D6A0F711D811D911DA11DDA
:1010F00020D009F468943F912AE0269F11243019EA
:10110000305D3193DEF6CF010895462F4770405D84
:101110004193B3E00FD0C9F7F6CF462F4F70405D33
:101120004A3318F0495D31FD4052419302D0A9F78E
:10113000EACFB4E0A6959795879577956795BA9588
:10114000C9F700976105710508959B01AC010A2E4E
:1011500006945795479537952795BA95C9F7620F25
:10116000731F841F951FA01D0895DC0128ED209397
:1011700034006C9308952F923F924F925F926F923A
:101180007F928F929F92AF92BF92CF92DF92EF9217
:10119000FF920F931F93CF93DF93CDB7DEB7CA1B98
:1011A000DB0BCDBFDEBF09942A88398848885F846D
:1011B0006E847D848C849B84AA84B984C884DF80F7
:1011C000EE80FD800C811B81AA81B981CE0FD11DDB
:0C11D000CDBFDEBFED010895F894FFCF05
:1011DC00477569746172204865726F004C6574279D
:1011EC007320526F636B00526564204E6F74650000
:1011FC0025640068656C6C6F00776F726C64004CD2
:10120C0065667400526968747400446F776E00559B
:10121C007000192406070F0D0A000A0014002000A4
:04122C001400140096
:02123000780044
:00000001FF
