S010000046697273745472792E73726563CD
S11300000C9469000C9486000C9486000C94860071
S11300100C9486000C9486000C9486000C94860044
S11300200C9486000C9486000C9486000C94860034
S11300300C9474080C9486000C9486000C9486002E
S11300400C9486000C9486000C9486000C94860014
S11300500C9486000C9486000C9416090C9486006B
S11300600C9486000C9486000C9486000C948600F4
S11300700C9486000C9486000C9486000C948600E4
S11300800C9486000C9486000C9486000C948600D4
S11300900C9486000C9486000C94700A0C948600D0
S11300A02A02430270029F02CC02FB022803570378
S11300B08403B303E0030F043C048604B604E80499
S11300C018054A057A05AC05DC050E063E067006E1
S11300D0A00611241FBECFEFCDBFDFE3DEBF18E2C1
S11300E0A0E0B8E2EFE5FCE102C005900D92A43176
S11300F0B107D9F729E2A4E1B8E201C01D92A23FF9
S1130100B207E1F70E9484070C94C50D0C9400001B
S113011090918804623429F0653429F4909188041C
S113012002C090912804892311F080E0089581E0B1
S11301300895E0E8F4E080858460808780858260AB
S11301408087808581608087A0E2B4E018968C91D6
S11301501897826018968C93189788E0828B818B0D
S1130160808B51968C930895E0E4F4E094819F7B16
S11301709483E0E2F4E094819B7F9483E0EAF4E0EA
S113018094819F7E9483E0E0F4E094819D7F948346
S113019084FF05C0E0E4F4E094819064948385FFD7
S11301A005C0E0E2F4E094819460948386FF05C086
S11301B0E0EAF4E094819061948388232CF4E0E0F5
S11301C0F4E084818260848308951F93CF93DF9346
S11301D0182F807F0E94B400E0E0F4E084818E7FD9
S11301E08483C0EAD4E08C8180628C8386E08A9523
S11301F0F1F700C08C818F7D8C8387EE93E00197AB
S1130200F1F700C00000812F8295807F0E94B40026
S11302108C8180628C8396E09A95F1F700C08C8182
S11302208F7D8C838FE097E20197F1F700C0000087
S1130230DF91CF911F9108951F93CF93DF93182FD0
S1130240807F0E94B400E0E0F4E0848181608483D4
S1130250C0EAD4E08C8180628C8386E08A95F1F7D1
S113026000C08C818F7D8C8387EE93E00197F1F73A
S113027000C00000812F8295807F0E94B4008C8191
S113028080628C8396E09A95F1F700C08C818F7D13
S11302908C838FE097E20197F1F700C00000DF91B3
S11302A0CF911F910895CF93DF93E0E0F4E0808134
S11302B081608083A0EAB4E08C9180628C9380E4B6
S11302C094E0EC0128812064288340E254E0EA01B0
S11302D02881246028832C9120612C932081226022
S11302E0208324812E7F248314962C9114972F7DB0
S11302F014962C931497EC012C812F7B2C83EA0108
S11303008C818B7F8C8314968C9114978F7E14969A
S11303108C9384818D7F8483DFEB24ED81E0D15045
S113032020408040E1F700C0000083E30E94E50024
S1130330C7EAD1E62197F1F700C0000082E30E94EA
S1130340E50088E20E94E5008CE00E94E50086E07A
S11303500E94E50081E00E94E5008FE097E20197AA
S1130360F1F700C00000DF91CF9108950F931F9320
S1130370CF93DF938C01C0E0D0E003C00E941C0146
S11303802196F801EC0FFD1F80818111F7CFDF91D9
S1130390CF911F910F910895CF93DF93EA018111BB
S11303A008C0603130F4862F8F7080680E94E500A9
S11303B009C0813039F4603128F4862F8F70806C45
S11303C00E94E500CE010E94B601DF91CF9108950D
S11303D0662341F0E82FF0E0E050F84D80818F5F14
S11303E080830895E82FF0E0E050F84D808180810B
S11303F0815080830895662361F0E82FF0E0EE0FCA
S1130400FF1FE85FF74D808191810196808391837E
S11304100895E82FF0E0EE0FFF1FE85FF74D8081AD
S113042091818081918101978083918308950F93B5
S11304301F93CF93DF93CDB7DEB7D450CDBFDEBFCC
S113044090E08D30910508F045C2FC01E05BFF4F60
S11304500C94C10A81E00E94E5004EE85BE562E08D
S113046080E00E94CC014AE95BE563E081E00E9400
S1130470CC012FE78AE196E0215080409040E1F7DB
S113048000C0000027C281E00E94E50045EA5BE568
S113049064E080E00E94CC01809100281F928F9339
S11304A08FEA9BE59F938F938E010F5F1F4F1F93DE
S11304B00F930E94DB0AA80168E081E00E94CC014E
S11304C02FE78AE196E0215080409040E1F700C098
S11304D000000F900F900F900F900F900F90FAC1A3
S11304E081E00E94E50042EB5BE560E080E00E9471
S11304F0CC0180910828909109289F938F938FEACB
S11305009BE59F938F938E010F5F1F4F1F930F9354
S11305100E94DB0AA80168E081E00E94CC012FE779
S11305208AE196E0215080409040E1F700C000004D
S11305300F900F900F900F900F900F90CBC181E010
S11305400E94E50040EC5BE564E080E00E94CC01A1
S1130550809101281F928F938FEA9BE59F938F933D
S11305608E010F5F1F4F1F930F930E94DB0AA80198
S113057068E081E00E94CC012FE78AE196E02150F7
S113058080409040E1F700C000000F900F900F9062
S11305900F900F900F909EC181E00E94E5004BECFC
S11305A05BE560E080E00E94CC0180910A28909194
S11305B00B289F938F938FEA9BE59F938F938E01D4
S11305C00F5F1F4F1F930F930E94DB0AA80168E07F
S11305D081E00E94CC012FE78AE196E0215080401F
S11305E09040E1F700C000000F900F900F900F9023
S11305F00F900F906FC181E00E94E5004AED5BE52A
S113060064E080E00E94CC01809102281F928F93C5
S11306108FEA9BE59F938F938E010F5F1F4F1F936C
S11306200F930E94DB0AA80168E081E00E94CC01DC
S11306302FE78AE196E0215080409040E1F700C026
S113064000000F900F900F900F900F900F9042C1E9
S113065081E00E94E50046EE5BE560E080E00E94F8
S1130660CC0180910C2890910D289F938F938FEA51
S11306709BE59F938F938E010F5F1F4F1F930F93E3
S11306800E94DB0AA80168E081E00E94CC012FE708
S11306908AE196E0215080409040E1F700C00000DC
S11306A00F900F900F900F900F900F9013C181E057
S11306B00E94E50046EF5BE564E080E00E94CC0127
S11306C0809103281F928F938FEA9BE59F938F93CA
S11306D08E010F5F1F4F1F930F930E94DB0AA80127
S11306E068E081E00E94CC012FE78AE196E0215086
S11306F080409040E1F700C000000F900F900F90F1
S11307000F900F900F90E6C081E00E94E50040E05A
S11307105CE560E080E00E94CC0180910E2890911D
S11307200F289F938F938FEA9BE59F938F938E015E
S11307300F5F1F4F1F930F930E94DB0AA80168E00D
S113074081E00E94CC012FE78AE196E021508040AD
S11307509040E1F700C000000F900F900F900F90B1
S11307600F900F90B7C081E00E94E5004EE05CE579
S113077064E080E00E94CC01809104281F928F9352
S11307808FEA9BE59F938F938E010F5F1F4F1F93FB
S11307900F930E94DB0AA80168E081E00E94CC016B
S11307A02FE78AE196E0215080409040E1F700C0B5
S11307B000000F900F900F900F900F900F908AC031
S11307C081E00E94E5004AE15CE560E080E00E948F
S11307D0CC0180911028909111289F938F938FEAD8
S11307E09BE59F938F938E010F5F1F4F1F930F9372
S11307F00E94DB0AA80168E081E00E94CC012FE797
S11308008AE196E0215080409040E1F700C000006A
S11308100F900F900F900F900F900F905BC081E09E
S11308200E94E5004AE25CE564E080E00E94CC01BD
S1130830809105281F928F938FEA9BE59F938F9356
S11308408E010F5F1F4F1F930F930E94DB0AA801B5
S113085068E081E00E94CC012FE78AE196E0215014
S113086080409040E1F700C000000F900F900F907F
S11308700F900F900F902EC081E00E94E50043E39B
S11308805CE560E080E00E94CC01809112289091A8
S113089013289F938F938FEA9BE59F938F938E01E9
S11308A00F5F1F4F1F930F930E94DB0AA80168E09C
S11308B081E00E94CC012FE78AE196E0215080403C
S11308C09040E1F700C000000F900F900F900F9040
S11308D00F900F90DC5FCDBFDEBFDF91CF911F91F2
S11308E00F9108950F931F93CF93DF93CDB7DEB786
S11308F0D450CDBFDEBF90E0FC013197EC30F10560
S113090008F04FC2E35AFF4F0C94C10A80E00E94E2
S1130910E80181E00E94E50045EA5BE564E080E0EF
S11309200E94CC01809100281F928F938FEA9BE54F
S11309309F938F938E010F5F1F4F1F930F930E94FE
S1130940DB0AA80168E081E00E94CC012FE78AE17C
S113095096E0215080409040E1F700C000000F90E5
S11309600F900F900F900F900F901BC280E00E9489
S1130970FB0181E00E94E50042EB5BE560E080E082
S11309800E94CC0180910828909109289F938F930D
S11309908FEA9BE59F938F938E010F5F1F4F1F93E9
S11309A00F930E94DB0AA80168E081E00E94CC0159
S11309B02FE78AE196E0215080409040E1F700C0A3
S11309C000000F900F900F900F900F900F90E9C1BF
S11309D081E00E94E80181E00E94E50040EC5BE5D3
S11309E064E080E00E94CC01809101281F928F93E3
S11309F08FEA9BE59F938F938E010F5F1F4F1F9389
S1130A000F930E94DB0AA80168E081E00E94CC01F8
S1130A102FE78AE196E0215080409040E1F700C042
S1130A2000000F900F900F900F900F900F90B9C18E
S1130A3081E00E94FB0181E00E94E5004BEC5BE554
S1130A4060E080E00E94CC0180910A2890910B28FC
S1130A509F938F938FEA9BE59F938F938E010F5FF4
S1130A601F4F1F930F930E94DB0AA80168E081E0E7
S1130A700E94CC012FE78AE196E02150804090400B
S1130A80E1F700C000000F900F900F900F900F90AF
S1130A900F9087C182E00E94E80181E00E94E50096
S1130AA04AED5BE564E080E00E94CC01809102287D
S1130AB01F928F938FEA9BE59F938F938E010F5F15
S1130AC01F4F1F930F930E94DB0AA80168E081E087
S1130AD00E94CC012FE78AE196E0215080409040AB
S1130AE0E1F700C000000F900F900F900F900F904F
S1130AF00F9057C182E00E94FB0181E00E94E50053
S1130B0046EE5BE560E080E00E94CC0180910C2819
S1130B1090910D289F938F938FEA9BE59F938F93DA
S1130B208E010F5F1F4F1F930F930E94DB0AA801D2
S1130B3068E081E00E94CC012FE78AE196E0215031
S1130B4080409040E1F700C000000F900F900F909C
S1130B500F900F900F9025C183E00E94E80181E07F
S1130B600E94E50046EF5BE564E080E00E94CC0172
S1130B70809103281F928F938FEA9BE59F938F9315
S1130B808E010F5F1F4F1F930F930E94DB0AA80172
S1130B9068E081E00E94CC012FE78AE196E02150D1
S1130BA080409040E1F700C000000F900F900F903C
S1130BB00F900F900F90F5C083E00E94FB0181E03D
S1130BC00E94E50040E05CE560E080E00E94CC012A
S1130BD080910E2890910F289F938F938FEA9BE525
S1130BE09F938F938E010F5F1F4F1F930F930E944C
S1130BF0DB0AA80168E081E00E94CC012FE78AE1CA
S1130C0096E0215080409040E1F700C000000F9032
S1130C100F900F900F900F900F90C3C084E00E942C
S1130C20E80181E00E94E5004EE05CE564E080E0DC
S1130C300E94CC01809104281F928F938FEA9BE538
S1130C409F938F938E010F5F1F4F1F930F930E94EB
S1130C50DB0AA80168E081E00E94CC012FE78AE169
S1130C6096E0215080409040E1F700C000000F90D2
S1130C700F900F900F900F900F9093C084E00E94FC
S1130C80FB0181E00E94E5004AE15CE560E080E070
S1130C900E94CC0180911028909111289F938F93EA
S1130CA08FEA9BE59F938F938E010F5F1F4F1F93D6
S1130CB00F930E94DB0AA80168E081E00E94CC0146
S1130CC02FE78AE196E0215080409040E1F700C090
S1130CD000000F900F900F900F900F900F9061C035
S1130CE085E00E94E80181E00E94E5004AE25CE5BB
S1130CF064E080E00E94CC01809105281F928F93CC
S1130D008FEA9BE59F938F938E010F5F1F4F1F9375
S1130D100F930E94DB0AA80168E081E00E94CC01E5
S1130D202FE78AE196E0215080409040E1F700C02F
S1130D3000000F900F900F900F900F900F9031C004
S1130D4085E00E94FB0181E00E94E50043E35CE54D
S1130D5060E080E00E94CC018091122890911328D9
S1130D609F938F938FEA9BE59F938F938E010F5FE1
S1130D701F4F1F930F930E94DB0AA80168E081E0D4
S1130D800E94CC012FE78AE196E0215080409040F8
S1130D90E1F700C000000F900F900F900F900F909C
S1130DA00F90DC5FCDBFDEBFDF91CF911F910F911C
S1130DB0089590E0FC01EA5DF74D21E02083880F5F
S1130DC0991FFC01E65EF74D88EC90E080839183E7
S1130DD00895CF9320911A2830911B2812161306D8
S1130DE0B4F0C42F0E948800882361F0EC2FF0E057
S1130DF0DF01AA5DB74D82E08C93EE5DF74D81E093
S1130E00808305C0EC2FF0E0EA5DF74D1082CF91AE
S1130E100895FF920F931F93CF93DF93082FF62E1D
S1130E20142FC42FD0E0FE01EE5DF74D8081813098
S1130E3089F541110EC08091372890E001966DE04C
S1130E4070E00E94AD0A80933728809137280E9471
S1130E501702113089F480913728882331F080916A
S1130E60372881508093372803C08DE0809337283A
S1130E70809137280E941702123029F48091372874
S1130E8060E00E947204133029F48091372861E0F5
S1130E900E947204FE01EE5DF74D10826F2D802FCB
S1130EA00E94880081110DC0FE01EE0FFF1FE65E57
S1130EB0F74D88EC90E080839183CA5DD74D83E041
S1130EC08883DF91CF911F910F91FF900895CF9365
S1130ED0DF93C42FD0E0FE01EE0FFF1FE65EF74D57
S1130EE0208131811216130664F00E948800882341
S1130EF029F0CA5DD74D82E0888303C0CA5DD74D0F
S1130F001882DF91CF91089560E081E690E00E941D
S1130F108E0DE0EEF5E082818064828380E180932F
S1130F20200400E614E0F8011482E0E6F8E089E326
S1130F3091E08087918780E48683E0E8FAE0C1E06D
S1130F40C583128613868AE491E084879587C083DB
S1130F500E94530180E49CE50E94B60181E00E9456
S1130F60E50040E45CE565E080E00E94CC0146E4F5
S1130F705CE565E081E00E94CC0181E00E94E5002F
S1130F800E94990084E0F801808B818BE0E0F6E018
S1130F9083E582831682C287C08378948091262851
S1130FA0813081F028F0823099F08330C9F01DC07F
S1130FB065E484E00E9488008823C9F080E00E94F0
S1130FC0D90615C040E065E484E00E94E9060FC03C
S1130FD02CE43CE540E065E484E00E94090707C096
S1130FE040E065E484E00E9467071092262880911F
S1130FF02728813081F028F0823099F08330C9F0BD
S11310001DC065E482E00E9488008823C9F081E065
S11310100E94D90615C041E065E482E00E94E90619
S11310200FC021E53CE541E065E482E00E94090748
S113103007C041E065E482E00E9467071092272818
S113104080912828813081F028F0823099F0833013
S1131050C9F01DC065E481E00E9488008823C9F0BE
S113106082E00E94D90615C042E065E481E00E9456
S1131070E9060FC027E53CE542E065E481E00E9413
S1131080090707C042E065E482E00E946707109206
S1131090282880912928813089F028F08230A1F015
S11310A08330D1F01EC062E482E00E94880088236D
S11310B009F474CF83E00E94D90670CF43E062E460
S11310C082E00E94E9066ACF2CE53CE543E062E455
S11310D082E00E94090762CF43E062E482E00E945A
S11310E06707109229285ACF1F920F920FB60F92BA
S11310F011248F939F93EF93FF9381E08093860A4B
S113110080911A2890911B28181619063CF4EAE1DC
S1131110F8E28081918101978083918380911C28DA
S113112090911D28181619063CF4EAE1F8E2828130
S1131130938101978283938380911E2890911F2825
S1131140181619063CF4EAE1F8E2848195810197C6
S1131150848395838091202890912128181619065C
S11311603CF4EAE1F8E286819781019786839783CC
S113117080913628882319F0813021F006C010921E
S1131180060603C081E08093060681E0809308068A
S1131190FF91EF919F918F910F900FBE0F901F9031
S11311A01895CF93C62F20913A2830E02D5F3F4FFA
S11311B026313105CCF5E0913828F0E0E352F64DC4
S11311C080838091382890E0019625E130E0B901D0
S11311D00E94AD0A80933828E0913828F0E0E35269
S11311E0F64DC0838091382890E00196B9010E94A1
S11311F0AD0A80933828E0913828F0E0E352F64DA8
S113120040838091382890E00196B9010E94AD0A8C
S11312108093382880913A288D5F80933A28E0E6BD
S1131220F8E0858180628583CF9108951F920F92A3
S11312300FB60F9211242F933F934F935F936F93A5
S11312407F938F939F93AF93BF93EF93FF932091DB
S1131250100630911106E0913628F0E0EC5EF74D6F
S11312608081882321F0813009F4ABC028C1E0914A
S11312703628F0E0EE0FFF1FE85FF74D8081918183
S11312808217930788F4E0913628F0E0EE0FFF1FF1
S1131290E553F64D20833183E0913628F0E0EC5E8F
S11312A0F74D81E080830EC08091362890E001964E
S11312B081709078992324F401978E6F9F6F019623
S11312C080933628E0913628F0E0EE0FFF1FE65DAC
S11312D0F74D2081318180910628909107282817A5
S11312E03907B8F4E0913628F0E0EE0FFF1FE65D11
S11312F0F74D80819181892B61F0E0913628F0E0EF
S1131300EE0FFF1FE65DF74D80819181019680838A
S11313109183E0913628F0E0EE0FFF1FE65DF74D74
S113132020813181809106289091072882179307A4
S113133008F0C5C0E09136288E2F90E0E091362861
S1131340F0E0EE0FFF1FE553F64D20813181FC01E3
S1131350E952F64D2083E0913628F0E0E952F64D4B
S1131360808188233CF4E0913628F0E0E952F64D80
S11313708FE78083E0913628F0E0E952F64D408112
S1131380E0913628F0E0E050F84D608180E90E9459
S1131390D108E0913628F0E0EE0FFF1FE65DF74D2F
S11313A0108211828091362890E0019681709078A5
S11313B0992324F401978E6F9F6F019680933628AA
S11313C07EC0E0913628F0E0EE0FFF1FE553F64DA6
S11313D0808191818217930748F4E0913628F0E0E8
S11313E0EE0FFF1FE553F64D20833183E09136283D
S11313F0F0E0EE0FFF1FE65DF74D20813181809113
S11314000628909107282817390768F4E0913628B0
S1131410F0E0EE0FFF1FE65DF74D808191810196AC
S1131420808391834CC0E09136288E2F90E0E09128
S11314303628F0E0EE0FFF1FE553F64D2081318191
S1131440FC01E952F64D2083E0913628F0E0E952A0
S1131450F64D808188233CF4E0913628F0E0E9528F
S1131460F64D8FE78083E0913628F0E0E952F64D9F
S11314704081E0913628F0E0E050F84D608180E949
S11314800E94D108E0913628F0E0EE0FFF1FE65DE0
S1131490F74D10821182E0913628F0E0EC5EF74DB2
S11314A010828091362890E001968170907899237B
S11314B024F401978E6F9F6F019680933628FF91D5
S11314C0EF91BF91AF919F918F917F916F915F91B8
S11314D04F913F912F910F900FBE0F901F90189531
S11314E01F920F920FB60F9211245F936F937F9305
S11314F08F939F93AF93BF93EF93FF9380913A2879
S1131500811106C0E0E6F8E085818F7D858317C0F0
S1131510E0913928F0E0E352F64D8081809362082F
S11315208091392890E0019665E170E00E94AD0A4F
S11315308093392880913A28815080933A28FF91EA
S1131540EF91BF91AF919F918F917F916F915F9137
S11315500F900FBE0F901F90189597FB072E16F44F
S1131560009407D077FD09D00E94C70A07FC05D074
S11315703EF4909581959F4F0895709561957F4FA6
S11315800895EE0FFF1F0590F491E02D0994AA1B16
S1131590BB1B51E107C0AA1FBB1FA617B70710F05A
S11315A0A61BB70B881F991F5A95A9F7809590958C
S11315B0BC01CD010895AEE0B0E0E1EEFAE00C9498
S11315C0A20D0D891E8986E08C8309831A838FEF0F
S11315D09FE78D839E83AE01475E5F4F6F89788D51
S11315E0CE0101960E94FD0AEF81F885E00FF11FFC
S11315F010822E96E4E00C94BB0DABE0B0E0E3E087
S1131600FBE00C94940D6C017B018A01FC011682B1
S11316101782838181FFCCC1CE0101963C01F60182
S11316209381F70193FD859193FF81917F01882335
S113163009F4BAC1853239F493FD859193FF819100
S11316407F01853229F4B60190E00E94F40CE7CFC3
S1131650912C212C312CFFE1F315D8F08B3279F049
S113166038F4803279F08332A1F4232D20611DC037
S11316708D3261F0803369F4232D216016C0832DEF
S11316808260382EE32DE4603E2E2AC0F32DF860EC
S11316901DC037FC2DC020ED280F2A3040F08E32BB
S11316A0B9F436FC81C1232D2064322E19C036FED4
S11316B006C08AE0989E200D1124922E11C0EAE003
S11316C02E9E200D1124222EF32DF0623F2E08C0F1
S11316D08C3621F4832D8068382E02C0883641F47C
S11316E0F70193FD859193FF81917F018111B3CF20
S11316F0982F9F7D9554933028F40C5F1F4F9FE3E0
S113170099830DC0833631F0833771F0833509F046
S113171059C021C0F801808189830E5F1F4F88243E
S11317208394912C530113C02801F2E04F0E511CF5
S1131730F801A080B18036FE03C0692D70E002C0BC
S11317406FEF7FEFC5010E94E90C4C018201F32D7C
S1131750FF773F2E16C0280122E0420E511CF801EB
S1131760A080B18036FE03C0692D70E002C06FEF27
S11317707FEFC5010E94DE0C4C01F32DF0683F2E73
S1131780820133FC1BC0822D90E088169906B0F4C8
S1131790B60180E290E00E94F40C2A94F4CFF501A3
S11317A037FC859137FE81915F01B60190E00E947C
S11317B0F40C21102A9421E0821A910881149104D6
S11317C071F7E8C0843611F0893641F5F80137FE27
S11317D007C060817181828193810C5F1F4F08C0B3
S11317E060817181072E000C880B990B0E5F1F4FCF
S11317F0F32DFF763F2E97FF09C090958095709545
S113180061957F4F8F4F9F4FF0683F2E2AE030E065
S1131810A3010E94300D882E861845C0853731F407
S1131820232D2F7EB22E2AE030E025C0932D997F00
S1131830B92E8F36C1F018F4883579F0B5C08037E9
S113184019F0883721F0B0C0E92FE061BE2EB4FE54
S11318500DC0FB2DF460BF2E09C034FE0AC0292F31
S11318602660B22E06C028E030E005C020E130E05A
S113187002C020E132E0F801B7FE07C06081718147
S1131880828193810C5F1F4F06C06081718180E06B
S113189090E00E5F1F4FA3010E94300D882E861822
S11318A0FB2DFF773F2E36FE0DC0232D2E7FA22E5B
S11318B0891458F434FE0BC032FC09C0832D8E7E8B
S11318C0A82E05C0B82CA32C03C0B82C01C0B92C79
S11318D0A4FE0FC0FE01E80DF11D8081803321F4C8
S11318E09A2D997EA92E09C0A2FE06C0B394B39482
S11318F004C08A2D867809F0B394A3FC11C0A0FE1D
S113190006C0B21488F4280C922C9B180EC0B21492
S113191060F4B60180E290E00E94F40CB394F7CF37
S1131920B21418F42B1802C0982C212CA4FE10C059
S1131930B60180E390E00E94F40CA2FE17C0A1FC63
S113194003C088E790E002C088E590E0B6010CC0CF
S11319508A2D867859F0A1FE02C08BE201C080E294
S1131960A7FC8DE2B60190E00E94F40C891438F4CF
S1131970B60180E390E00E94F40C9A94F7CF8A9425
S1131980F301E80DF11D8081B60190E00E94F40C92
S11319908110F5CF222009F442CEB60180E290E016
S11319A00E94F40C2A94F6CFF6018681978102C036
S11319B08FEF9FEF2B96E2E10C94AD0DFC010590A7
S11319C0615070400110D8F7809590958E0F9F1F3D
S11319D00895FC016150704001900110D8F7809582
S11319E090958E0F9F1F08950F931F93CF93DF93AE
S11319F0FB01238121FD03C08FEF9FEF2CC022FF49
S1131A0016C046815781248135814217530744F417
S1131A10A081B1819D012F5F3F4F208331838C933F
S1131A20268137812F5F3F4F2683378314C08B0174
S1131A30EC01FB010084F185E02D0995892BE1F689
S1131A40D80116968D919C911797019616968D93B1
S1131A509C931797CE01DF91CF911F910F91089519
S1131A60FA01AA27283051F1203181F1E8946F93CB
S1131A706E7F6E5F7F4F8F4F9F4FAF4FB1E03ED071
S1131A80B4E03CD0670F781F891F9A1FA11D680F0F
S1131A90791F8A1F911DA11D6A0F711D811D911D42
S1131AA0A11D20D009F468943F912AE0269F1124B7
S1131AB03019305D3193DEF6CF010895462F47701B
S1131AC0405D4193B3E00FD0C9F7F6CF462F4F7076
S1131AD0405D4A3318F0495D31FD4052419302D0D4
S1131AE0A9F7EACFB4E0A69597958795779567957A
S1131AF0BA95C9F700976105710508959B01AC017A
S1131B000A2E06945795479537952795BA95C9F7A0
S1131B10620F731F841F951FA01D0895DC0128ED1B
S1131B20209334006C9308952F923F924F925F92CA
S1131B306F927F928F929F92AF92BF92CF92DF92D9
S1131B40EF92FF920F931F93CF93DF93CDB7DEB73E
S1131B50CA1BDB0BCDBFDEBF09942A8839884888AD
S1131B605F846E847D848C849B84AA84B984C884B5
S1131B70DF80EE80FD800C811B81AA81B981CE0FAC
S1111B80D11DCDBFDEBFED010895F894FFCF57
S1131B8E477569746172204865726F004C657427DD
S1131B9E7320526F636B004B69636B204E6F7465D9
S1131BAE002564004B69636B2056656C6F63697422
S1131BBE7900477265656E204E6F746500477265D5
S1131BCE656E2056656C6F63697479004F72616E31
S1131BDE6765204E6F7465004F72616E676520569F
S1131BEE656C6F6369747900426C7565204E6F7411
S1131BFE6500426C75652056656C6F636974790077
S1131C0E59656C6C6F77204E6F74650059656C6CFA
S1131C1E6F772056656C6F63697479005265642022
S1131C2E4E6F7465005265642056656C6F636974FB
S1131C3E790068656C6C6F00776F726C64004C652C
S1131C4E667400526967687400446F776E0055704D
S1041C5E0081
S1131C5F000102030405C80014001400140020003E
S1071C6F14002C012C
S9030000FC
