:100000000C9450000C946D000C946D000C946D00D9
:100010000C946D000C946D000C946D000C946D00AC
:100020000C946D000C946D000C946D000C946D009C
:100030000C94AF000C946D000C946D000C946D004A
:100040000C946D000C946D000C946D000C946D007C
:100050000C946D000C946D000C942C010C946D00AC
:100060000C946D000C946D000C946D000C946D005C
:100070000C946D000C946D000C946D000C946D004C
:100080000C946D000C946D000C946D000C946D003C
:100090000C946D000C946D000C947A020C946D001D
:1000A00011241FBECFEFCDBFDFE3DEBF18E2A0E01B
:1000B000B8E2E0EEF5E002C005900D92A230B10783
:1000C000D9F729E2A2E0B8E201C01D92AF3CB20725
:1000D000E1F70E946F000C94E5020C94000060E0D0
:1000E00081E690E00E94DF02E0EEF5E0828180642C
:1000F000828380E180932004E0E6F4E080E4808362
:10010000A0E6B8E029E331E018962D933C931997C7
:1001100016968C93A0E8BAE081E015968C9315971B
:100120001A961D921C921B972AE431E01C962D937F
:100130003C931D978C9394E0908B918BA0E0B6E05C
:1001400093E512969C93129716961C9216971A9600
:100150008C931A978C93789414820000FECF1F9290
:100160000F920FB60F9211248F9381E08093860A2D
:1001700080911428823099F028F4882349F0813046
:1001800051F01CC0843099F070F08530A1F016C099
:100190001092060613C081E0809306060FC082E02D
:1001A000809306060BC083E08093060607C084E0B8
:1001B0008093060603C085E08093060681E0809365
:1001C00008068F910F900FBE0F901F901895CF9338
:1001D000C62F2091172830E02D5F3F4F2631310583
:1001E000CCF5E0911528F0E0E654F64D808380913F
:1001F000152890E0019625E130E0B9010E94B70290
:1002000080931528E0911528F0E0E654F64DC08360
:100210008091152890E00196B9010E94B702809361
:100220001528E0911528F0E0E654F64D40838091C2
:10023000152890E00196B9010E94B7028093152815
:10024000809117288D5F80931728E0E6F8E085817C
:1002500080628583CF9108951F920F920FB60F92FF
:1002600011242F933F934F935F936F937F938F93BB
:100270009F93AF93BF93EF93FF932091100630911C
:100280001106E0911428F0E0EE5FF74D808188239D
:1002900021F0813009F4A3C01CC1E0911428F0E0E2
:1002A000EE0FFF1FEC52FA4B80819181821793076A
:1002B00088F4E0911428F0E0EE0FFF1FE855F64DAA
:1002C00020833183E0911428F0E0EE5FF74D81E068
:1002D00080830AC08091142890E0019666E070E067
:1002E0000E94B70280931428E0911428F0E0EE0FEA
:1002F000FF1FE85FF74D20813181809100289091A8
:10030000012828173907B8F4E0911428F0E0EE0F1F
:10031000FF1FE85FF74D80819181892B61F0E091AB
:100320001428F0E0EE0FFF1FE85FF74D8081918108
:10033000019680839183E0911428F0E0EE0FFF1F77
:10034000E85FF74D2081318180910028909101284C
:100350008217930708F0BDC0E09114288E2F90E01B
:10036000E0911428F0E0EE0FFF1FE855F64D2081D4
:100370003181FC01EC54F64D2083E0911428F0E02B
:10038000EC54F64D808188233CF4E0911428F0E091
:10039000EC54F64D8FE78083E0911428F0E0EC54A4
:1003A000F64D4081E0911428F0E0E253FA4B608171
:1003B00080E90E94E700E0911428F0E0EE0FFF1FB3
:1003C000E85FF74D108211828091142890E0019629
:1003D00066E070E00E94B702809314287AC0E09132
:1003E0001428F0E0EE0FFF1FE855F64D8081918153
:1003F0008217930748F4E0911428F0E0EE0FFF1FF6
:10040000E855F64D20833183E0911428F0E0EE0F9B
:10041000FF1FE85FF74D2081318180910028909186
:1004200001282817390768F4E0911428F0E0EE0F4E
:10043000FF1FE85FF74D8081918101968083918352
:1004400048C0E09114288E2F90E0E0911428F0E04D
:10045000EE0FFF1FE855F64D20813181FC01EC5471
:10046000F64D2083E0911428F0E0EC54F64D8081A5
:1004700088233CF4E0911428F0E0EC54F64D8FE72B
:100480008083E0911428F0E0EC54F64D4081E09137
:100490001428F0E0E253FA4B608180E90E94E70003
:1004A000E0911428F0E0EE0FFF1FE85FF74D108297
:1004B0001182E0911428F0E0EE5FF74D10828091F8
:1004C000142890E0019666E070E00E94B7028093E5
:1004D0001428FF91EF91BF91AF919F918F917F91E0
:1004E0006F915F914F913F912F910F900FBE0F90A1
:1004F0001F9018951F920F920FB60F9211245F93C1
:100500006F937F938F939F93AF93BF93EF93FF93DB
:1005100080911728811106C0E0E6F8E085818F7D83
:10052000858317C0E0911628F0E0E654F64D8081EF
:10053000809362088091162890E0019665E170E052
:100540000E94B702809316288091172881508093CB
:100550001728FF91EF91BF91AF919F918F917F915C
:100560006F915F910F900FBE0F901F90189597FBA2
:10057000072E16F4009407D077FD09D00E94CB0215
:1005800007FC05D03EF4909581959F4F0895709596
:1005900061957F4F0895AA1BBB1B51E107C0AA1F9D
:1005A000BB1FA617B70710F0A61BB70B881F991F14
:1005B0005A95A9F780959095BC01CD010895DC016D
:0E05C00028ED209334006C930895F894FFCF3B
:1005CE000001020304050A000A001E001E001E00A0
:0205DE001E00FD
:0205E000F40124
:00000001FF
