S010000046697273745472792E73726563CD
S11300000C9450000C9462000C9462000C946200F6
S11300100C9462000C9462000C9462000C946200D4
S11300200C9462000C9462000C9462000C946200C4
S11300300C948C000C9462000C9462000C9462008A
S11300400C9462000C9462000C9462000C946200A4
S11300500C9462000C9462000C9462000C94620094
S11300600C9462000C9462000C9462000C94620084
S11300700C9462000C9462000C9462000C94620074
S11300800C9462000C9462000C9462000C94620064
S11300900C9462000C9462000C9462000C94620054
S11300A011241FBECFEFCDBFDFE3DEBF28E2A0E007
S11300B0B8E201C01D92A030B207E1F70E946400CB
S11300C00C9498000C94000088ED84BF1092610099
S11300D080E48093E20590E1909320042CE232E0E6
S11300E020936808309369088093660880936004BD
S11300F091E09093850A10928A0A10928B0A20E468
S113010036E020938C0A30938D0A9093800A789479
S1130110809364040000FECF1F920F920FB60F92DB
S11301201124109264040F900FBE0F901F90189525
S1070130F894FFCF6D
S9030000FC
